{
  "contractName": "Dontbuy",
  "abi": [
    {
      "inputs": [],
      "stateMutability": "nonpayable",
      "type": "constructor"
    },
    {
      "anonymous": false,
      "inputs": [
        {
          "indexed": true,
          "internalType": "address",
          "name": "owner",
          "type": "address"
        },
        {
          "indexed": true,
          "internalType": "address",
          "name": "approved",
          "type": "address"
        },
        {
          "indexed": true,
          "internalType": "uint256",
          "name": "tokenId",
          "type": "uint256"
        }
      ],
      "name": "Approval",
      "type": "event"
    },
    {
      "anonymous": false,
      "inputs": [
        {
          "indexed": true,
          "internalType": "address",
          "name": "owner",
          "type": "address"
        },
        {
          "indexed": true,
          "internalType": "address",
          "name": "operator",
          "type": "address"
        },
        {
          "indexed": false,
          "internalType": "bool",
          "name": "approved",
          "type": "bool"
        }
      ],
      "name": "ApprovalForAll",
      "type": "event"
    },
    {
      "anonymous": false,
      "inputs": [
        {
          "indexed": true,
          "internalType": "address",
          "name": "from",
          "type": "address"
        },
        {
          "indexed": true,
          "internalType": "address",
          "name": "to",
          "type": "address"
        },
        {
          "indexed": true,
          "internalType": "uint256",
          "name": "tokenId",
          "type": "uint256"
        }
      ],
      "name": "Transfer",
      "type": "event"
    },
    {
      "inputs": [
        {
          "internalType": "address",
          "name": "to",
          "type": "address"
        },
        {
          "internalType": "uint256",
          "name": "tokenId",
          "type": "uint256"
        }
      ],
      "name": "approve",
      "outputs": [],
      "stateMutability": "nonpayable",
      "type": "function"
    },
    {
      "inputs": [
        {
          "internalType": "address",
          "name": "owner",
          "type": "address"
        }
      ],
      "name": "balanceOf",
      "outputs": [
        {
          "internalType": "uint256",
          "name": "",
          "type": "uint256"
        }
      ],
      "stateMutability": "view",
      "type": "function",
      "constant": true
    },
    {
      "inputs": [
        {
          "internalType": "uint256",
          "name": "tokenId",
          "type": "uint256"
        }
      ],
      "name": "getApproved",
      "outputs": [
        {
          "internalType": "address",
          "name": "",
          "type": "address"
        }
      ],
      "stateMutability": "view",
      "type": "function",
      "constant": true
    },
    {
      "inputs": [
        {
          "internalType": "address",
          "name": "owner",
          "type": "address"
        },
        {
          "internalType": "address",
          "name": "operator",
          "type": "address"
        }
      ],
      "name": "isApprovedForAll",
      "outputs": [
        {
          "internalType": "bool",
          "name": "",
          "type": "bool"
        }
      ],
      "stateMutability": "view",
      "type": "function",
      "constant": true
    },
    {
      "inputs": [],
      "name": "name",
      "outputs": [
        {
          "internalType": "string",
          "name": "",
          "type": "string"
        }
      ],
      "stateMutability": "view",
      "type": "function",
      "constant": true
    },
    {
      "inputs": [
        {
          "internalType": "uint256",
          "name": "tokenId",
          "type": "uint256"
        }
      ],
      "name": "ownerOf",
      "outputs": [
        {
          "internalType": "address",
          "name": "",
          "type": "address"
        }
      ],
      "stateMutability": "view",
      "type": "function",
      "constant": true
    },
    {
      "inputs": [
        {
          "internalType": "address",
          "name": "from",
          "type": "address"
        },
        {
          "internalType": "address",
          "name": "to",
          "type": "address"
        },
        {
          "internalType": "uint256",
          "name": "tokenId",
          "type": "uint256"
        }
      ],
      "name": "safeTransferFrom",
      "outputs": [],
      "stateMutability": "nonpayable",
      "type": "function"
    },
    {
      "inputs": [
        {
          "internalType": "address",
          "name": "from",
          "type": "address"
        },
        {
          "internalType": "address",
          "name": "to",
          "type": "address"
        },
        {
          "internalType": "uint256",
          "name": "tokenId",
          "type": "uint256"
        },
        {
          "internalType": "bytes",
          "name": "_data",
          "type": "bytes"
        }
      ],
      "name": "safeTransferFrom",
      "outputs": [],
      "stateMutability": "nonpayable",
      "type": "function"
    },
    {
      "inputs": [
        {
          "internalType": "address",
          "name": "operator",
          "type": "address"
        },
        {
          "internalType": "bool",
          "name": "approved",
          "type": "bool"
        }
      ],
      "name": "setApprovalForAll",
      "outputs": [],
      "stateMutability": "nonpayable",
      "type": "function"
    },
    {
      "inputs": [
        {
          "internalType": "bytes4",
          "name": "interfaceId",
          "type": "bytes4"
        }
      ],
      "name": "supportsInterface",
      "outputs": [
        {
          "internalType": "bool",
          "name": "",
          "type": "bool"
        }
      ],
      "stateMutability": "view",
      "type": "function",
      "constant": true
    },
    {
      "inputs": [],
      "name": "symbol",
      "outputs": [
        {
          "internalType": "string",
          "name": "",
          "type": "string"
        }
      ],
      "stateMutability": "view",
      "type": "function",
      "constant": true
    },
    {
      "inputs": [
        {
          "internalType": "uint256",
          "name": "tokenId",
          "type": "uint256"
        }
      ],
      "name": "tokenURI",
      "outputs": [
        {
          "internalType": "string",
          "name": "",
          "type": "string"
        }
      ],
      "stateMutability": "view",
      "type": "function",
      "constant": true
    },
    {
      "inputs": [
        {
          "internalType": "address",
          "name": "from",
          "type": "address"
        },
        {
          "internalType": "address",
          "name": "to",
          "type": "address"
        },
        {
          "internalType": "uint256",
          "name": "tokenId",
          "type": "uint256"
        }
      ],
      "name": "transferFrom",
      "outputs": [],
      "stateMutability": "nonpayable",
      "type": "function"
    },
    {
      "inputs": [
        {
          "internalType": "address",
          "name": "owner",
          "type": "address"
        },
        {
          "internalType": "string",
          "name": "tokenURI",
          "type": "string"
        }
      ],
      "name": "MintNFT",
      "outputs": [
        {
          "internalType": "uint256",
          "name": "",
          "type": "uint256"
        }
      ],
      "stateMutability": "nonpayable",
      "type": "function"
    }
  ],
  "bytecode": "0x60806040523480156200001157600080fd5b506040518060400160405280600e81526020017f446f6e74427579546869734e46540000000000000000000000000000000000008152506040518060400160405280600381526020017f44425400000000000000000000000000000000000000000000000000000000008152508160009080519060200190620000969291906200048a565b508060019080519060200190620000af9291906200048a565b5050506200010d73814bb9f41045c7fb273fef84bddb3059d9f8bb286040518060400160405280600e81526020017f2e2f4e46542f4e46542e6a736f6e0000000000000000000000000000000000008152506200011460201b60201c565b50620007c1565b60006200012d60076200017660201b62000b261760201c565b60006200014660076200018c60201b62000b3c1760201c565b90506200015a84826200019a60201b60201c565b6200016c81846200039360201b60201c565b8091505092915050565b6001816000016000828254019250508190555050565b600081600001549050919050565b600073ffffffffffffffffffffffffffffffffffffffff168273ffffffffffffffffffffffffffffffffffffffff16036200020c576040517f08c379a000000000000000000000000000000000000000000000000000000000815260040162000203906200059b565b60405180910390fd5b6200021d816200041460201b60201c565b1562000260576040517f08c379a000000000000000000000000000000000000000000000000000000000815260040162000257906200060d565b60405180910390fd5b62000274600083836200048060201b60201c565b6001600360008473ffffffffffffffffffffffffffffffffffffffff1673ffffffffffffffffffffffffffffffffffffffff1681526020019081526020016000206000828254620002c6919062000668565b92505081905550816002600083815260200190815260200160002060006101000a81548173ffffffffffffffffffffffffffffffffffffffff021916908373ffffffffffffffffffffffffffffffffffffffff160217905550808273ffffffffffffffffffffffffffffffffffffffff16600073ffffffffffffffffffffffffffffffffffffffff167fddf252ad1be2c89b69c2b068fc378daa952ba7f163c4a11628f55a4df523b3ef60405160405180910390a46200038f600083836200048560201b60201c565b5050565b620003a4826200041460201b60201c565b620003e6576040517f08c379a0000000000000000000000000000000000000000000000000000000008152600401620003dd906200073b565b60405180910390fd5b806006600084815260200190815260200160002090805190602001906200040f9291906200048a565b505050565b60008073ffffffffffffffffffffffffffffffffffffffff166002600084815260200190815260200160002060009054906101000a900473ffffffffffffffffffffffffffffffffffffffff1673ffffffffffffffffffffffffffffffffffffffff1614159050919050565b505050565b505050565b82805462000498906200078c565b90600052602060002090601f016020900481019282620004bc576000855562000508565b82601f10620004d757805160ff191683800117855562000508565b8280016001018555821562000508579182015b8281111562000507578251825591602001919060010190620004ea565b5b5090506200051791906200051b565b5090565b5b80821115620005365760008160009055506001016200051c565b5090565b600082825260208201905092915050565b7f4552433732313a206d696e7420746f20746865207a65726f2061646472657373600082015250565b6000620005836020836200053a565b915062000590826200054b565b602082019050919050565b60006020820190508181036000830152620005b68162000574565b9050919050565b7f4552433732313a20746f6b656e20616c7265616479206d696e74656400000000600082015250565b6000620005f5601c836200053a565b91506200060282620005bd565b602082019050919050565b600060208201905081810360008301526200062881620005e6565b9050919050565b6000819050919050565b7f4e487b7100000000000000000000000000000000000000000000000000000000600052601160045260246000fd5b600062000675826200062f565b915062000682836200062f565b9250827fffffffffffffffffffffffffffffffffffffffffffffffffffffffffffffffff03821115620006ba57620006b962000639565b5b828201905092915050565b7f45524337323155524953746f726167653a2055524920736574206f66206e6f6e60008201527f6578697374656e7420746f6b656e000000000000000000000000000000000000602082015250565b600062000723602e836200053a565b91506200073082620006c5565b604082019050919050565b60006020820190508181036000830152620007568162000714565b9050919050565b7f4e487b7100000000000000000000000000000000000000000000000000000000600052602260045260246000fd5b60006002820490506001821680620007a557607f821691505b602082108103620007bb57620007ba6200075d565b5b50919050565b612bb780620007d16000396000f3fe608060405234801561001057600080fd5b50600436106100ea5760003560e01c806370a082311161008c578063a22cb46511610066578063a22cb4651461026f578063b88d4fde1461028b578063c87b56dd146102a7578063e985e9c5146102d7576100ea565b806370a08231146101f157806395d89b4114610221578063a06b4ca11461023f576100ea565b8063095ea7b3116100c8578063095ea7b31461016d57806323b872dd1461018957806342842e0e146101a55780636352211e146101c1576100ea565b806301ffc9a7146100ef57806306fdde031461011f578063081812fc1461013d575b600080fd5b6101096004803603810190610104919061191b565b610307565b6040516101169190611963565b60405180910390f35b6101276103e9565b6040516101349190611a17565b60405180910390f35b61015760048036038101906101529190611a6f565b61047b565b6040516101649190611add565b60405180910390f35b61018760048036038101906101829190611b24565b610500565b005b6101a3600480360381019061019e9190611b64565b610617565b005b6101bf60048036038101906101ba9190611b64565b610677565b005b6101db60048036038101906101d69190611a6f565b610697565b6040516101e89190611add565b60405180910390f35b61020b60048036038101906102069190611bb7565b610748565b6040516102189190611bf3565b60405180910390f35b6102296107ff565b6040516102369190611a17565b60405180910390f35b61025960048036038101906102549190611d43565b610891565b6040516102669190611bf3565b60405180910390f35b61028960048036038101906102849190611dcb565b6108c9565b005b6102a560048036038101906102a09190611eac565b6108df565b005b6102c160048036038101906102bc9190611a6f565b610941565b6040516102ce9190611a17565b60405180910390f35b6102f160048036038101906102ec9190611f2f565b610a92565b6040516102fe9190611963565b60405180910390f35b60007f80ac58cd000000000000000000000000000000000000000000000000000000007bffffffffffffffffffffffffffffffffffffffffffffffffffffffff1916827bffffffffffffffffffffffffffffffffffffffffffffffffffffffff191614806103d257507f5b5e139f000000000000000000000000000000000000000000000000000000007bffffffffffffffffffffffffffffffffffffffffffffffffffffffff1916827bffffffffffffffffffffffffffffffffffffffffffffffffffffffff1916145b806103e257506103e182610b4a565b5b9050919050565b6060600080546103f890611f9e565b80601f016020809104026020016040519081016040528092919081815260200182805461042490611f9e565b80156104715780601f1061044657610100808354040283529160200191610471565b820191906000526020600020905b81548152906001019060200180831161045457829003601f168201915b5050505050905090565b600061048682610bb4565b6104c5576040517f08c379a00000000000000000000000000000000000000000000000000000000081526004016104bc90612041565b60405180910390fd5b6004600083815260200190815260200160002060009054906101000a900473ffffffffffffffffffffffffffffffffffffffff169050919050565b600061050b82610697565b90508073ffffffffffffffffffffffffffffffffffffffff168373ffffffffffffffffffffffffffffffffffffffff160361057b576040517f08c379a0000000000000000000000000000000000000000000000000000000008152600401610572906120d3565b60405180910390fd5b8073ffffffffffffffffffffffffffffffffffffffff1661059a610c20565b73ffffffffffffffffffffffffffffffffffffffff1614806105c957506105c8816105c3610c20565b610a92565b5b610608576040517f08c379a00000000000000000000000000000000000000000000000000000000081526004016105ff90612165565b60405180910390fd5b6106128383610c28565b505050565b610628610622610c20565b82610ce1565b610667576040517f08c379a000000000000000000000000000000000000000000000000000000000815260040161065e906121f7565b60405180910390fd5b610672838383610dbf565b505050565b610692838383604051806020016040528060008152506108df565b505050565b6000806002600084815260200190815260200160002060009054906101000a900473ffffffffffffffffffffffffffffffffffffffff169050600073ffffffffffffffffffffffffffffffffffffffff168173ffffffffffffffffffffffffffffffffffffffff160361073f576040517f08c379a000000000000000000000000000000000000000000000000000000000815260040161073690612289565b60405180910390fd5b80915050919050565b60008073ffffffffffffffffffffffffffffffffffffffff168273ffffffffffffffffffffffffffffffffffffffff16036107b8576040517f08c379a00000000000000000000000000000000000000000000000000000000081526004016107af9061231b565b60405180910390fd5b600360008373ffffffffffffffffffffffffffffffffffffffff1673ffffffffffffffffffffffffffffffffffffffff168152602001908152602001600020549050919050565b60606001805461080e90611f9e565b80601f016020809104026020016040519081016040528092919081815260200182805461083a90611f9e565b80156108875780601f1061085c57610100808354040283529160200191610887565b820191906000526020600020905b81548152906001019060200180831161086a57829003601f168201915b5050505050905090565b600061089d6007610b26565b60006108a96007610b3c565b90506108b58482611025565b6108bf81846111fe565b8091505092915050565b6108db6108d4610c20565b8383611272565b5050565b6108f06108ea610c20565b83610ce1565b61092f576040517f08c379a0000000000000000000000000000000000000000000000000000000008152600401610926906121f7565b60405180910390fd5b61093b848484846113de565b50505050565b606061094c82610bb4565b61098b576040517f08c379a0000000000000000000000000000000000000000000000000000000008152600401610982906123ad565b60405180910390fd5b60006006600084815260200190815260200160002080546109ab90611f9e565b80601f01602080910402602001604051908101604052809291908181526020018280546109d790611f9e565b8015610a245780601f106109f957610100808354040283529160200191610a24565b820191906000526020600020905b815481529060010190602001808311610a0757829003601f168201915b505050505090506000610a3561143a565b90506000815103610a4a578192505050610a8d565b600082511115610a7f578082604051602001610a67929190612409565b60405160208183030381529060405292505050610a8d565b610a8884611451565b925050505b919050565b6000600560008473ffffffffffffffffffffffffffffffffffffffff1673ffffffffffffffffffffffffffffffffffffffff16815260200190815260200160002060008373ffffffffffffffffffffffffffffffffffffffff1673ffffffffffffffffffffffffffffffffffffffff16815260200190815260200160002060009054906101000a900460ff16905092915050565b6001816000016000828254019250508190555050565b600081600001549050919050565b60007f01ffc9a7000000000000000000000000000000000000000000000000000000007bffffffffffffffffffffffffffffffffffffffffffffffffffffffff1916827bffffffffffffffffffffffffffffffffffffffffffffffffffffffff1916149050919050565b60008073ffffffffffffffffffffffffffffffffffffffff166002600084815260200190815260200160002060009054906101000a900473ffffffffffffffffffffffffffffffffffffffff1673ffffffffffffffffffffffffffffffffffffffff1614159050919050565b600033905090565b816004600083815260200190815260200160002060006101000a81548173ffffffffffffffffffffffffffffffffffffffff021916908373ffffffffffffffffffffffffffffffffffffffff160217905550808273ffffffffffffffffffffffffffffffffffffffff16610c9b83610697565b73ffffffffffffffffffffffffffffffffffffffff167f8c5be1e5ebec7d5bd14f71427d1e84f3dd0314c0f7b2291e5b200ac8c7c3b92560405160405180910390a45050565b6000610cec82610bb4565b610d2b576040517f08c379a0000000000000000000000000000000000000000000000000000000008152600401610d229061249f565b60405180910390fd5b6000610d3683610697565b90508073ffffffffffffffffffffffffffffffffffffffff168473ffffffffffffffffffffffffffffffffffffffff161480610da557508373ffffffffffffffffffffffffffffffffffffffff16610d8d8461047b565b73ffffffffffffffffffffffffffffffffffffffff16145b80610db65750610db58185610a92565b5b91505092915050565b8273ffffffffffffffffffffffffffffffffffffffff16610ddf82610697565b73ffffffffffffffffffffffffffffffffffffffff1614610e35576040517f08c379a0000000000000000000000000000000000000000000000000000000008152600401610e2c90612531565b60405180910390fd5b600073ffffffffffffffffffffffffffffffffffffffff168273ffffffffffffffffffffffffffffffffffffffff1603610ea4576040517f08c379a0000000000000000000000000000000000000000000000000000000008152600401610e9b906125c3565b60405180910390fd5b610eaf8383836114f8565b610eba600082610c28565b6001600360008573ffffffffffffffffffffffffffffffffffffffff1673ffffffffffffffffffffffffffffffffffffffff1681526020019081526020016000206000828254610f0a9190612612565b925050819055506001600360008473ffffffffffffffffffffffffffffffffffffffff1673ffffffffffffffffffffffffffffffffffffffff1681526020019081526020016000206000828254610f619190612646565b92505081905550816002600083815260200190815260200160002060006101000a81548173ffffffffffffffffffffffffffffffffffffffff021916908373ffffffffffffffffffffffffffffffffffffffff160217905550808273ffffffffffffffffffffffffffffffffffffffff168473ffffffffffffffffffffffffffffffffffffffff167fddf252ad1be2c89b69c2b068fc378daa952ba7f163c4a11628f55a4df523b3ef60405160405180910390a46110208383836114fd565b505050565b600073ffffffffffffffffffffffffffffffffffffffff168273ffffffffffffffffffffffffffffffffffffffff1603611094576040517f08c379a000000000000000000000000000000000000000000000000000000000815260040161108b906126e8565b60405180910390fd5b61109d81610bb4565b156110dd576040517f08c379a00000000000000000000000000000000000000000000000000000000081526004016110d490612754565b60405180910390fd5b6110e9600083836114f8565b6001600360008473ffffffffffffffffffffffffffffffffffffffff1673ffffffffffffffffffffffffffffffffffffffff16815260200190815260200160002060008282546111399190612646565b92505081905550816002600083815260200190815260200160002060006101000a81548173ffffffffffffffffffffffffffffffffffffffff021916908373ffffffffffffffffffffffffffffffffffffffff160217905550808273ffffffffffffffffffffffffffffffffffffffff16600073ffffffffffffffffffffffffffffffffffffffff167fddf252ad1be2c89b69c2b068fc378daa952ba7f163c4a11628f55a4df523b3ef60405160405180910390a46111fa600083836114fd565b5050565b61120782610bb4565b611246576040517f08c379a000000000000000000000000000000000000000000000000000000000815260040161123d906127e6565b60405180910390fd5b8060066000848152602001908152602001600020908051906020019061126d92919061180c565b505050565b8173ffffffffffffffffffffffffffffffffffffffff168373ffffffffffffffffffffffffffffffffffffffff16036112e0576040517f08c379a00000000000000000000000000000000000000000000000000000000081526004016112d790612852565b60405180910390fd5b80600560008573ffffffffffffffffffffffffffffffffffffffff1673ffffffffffffffffffffffffffffffffffffffff16815260200190815260200160002060008473ffffffffffffffffffffffffffffffffffffffff1673ffffffffffffffffffffffffffffffffffffffff16815260200190815260200160002060006101000a81548160ff0219169083151502179055508173ffffffffffffffffffffffffffffffffffffffff168373ffffffffffffffffffffffffffffffffffffffff167f17307eab39ab6107e8899845ad3d59bd9653f200f220920489ca2b5937696c31836040516113d19190611963565b60405180910390a3505050565b6113e9848484610dbf565b6113f584848484611502565b611434576040517f08c379a000000000000000000000000000000000000000000000000000000000815260040161142b906128e4565b60405180910390fd5b50505050565b606060405180602001604052806000815250905090565b606061145c82610bb4565b61149b576040517f08c379a000000000000000000000000000000000000000000000000000000000815260040161149290612976565b60405180910390fd5b60006114a561143a565b905060008151116114c557604051806020016040528060008152506114f0565b806114cf84611689565b6040516020016114e0929190612409565b6040516020818303038152906040525b915050919050565b505050565b505050565b60006115238473ffffffffffffffffffffffffffffffffffffffff166117e9565b1561167c578373ffffffffffffffffffffffffffffffffffffffff1663150b7a0261154c610c20565b8786866040518563ffffffff1660e01b815260040161156e94939291906129eb565b6020604051808303816000875af19250505080156115aa57506040513d601f19601f820116820180604052508101906115a79190612a4c565b60015b61162c573d80600081146115da576040519150601f19603f3d011682016040523d82523d6000602084013e6115df565b606091505b506000815103611624576040517f08c379a000000000000000000000000000000000000000000000000000000000815260040161161b906128e4565b60405180910390fd5b805181602001fd5b63150b7a0260e01b7bffffffffffffffffffffffffffffffffffffffffffffffffffffffff1916817bffffffffffffffffffffffffffffffffffffffffffffffffffffffff191614915050611681565b600190505b949350505050565b6060600082036116d0576040518060400160405280600181526020017f300000000000000000000000000000000000000000000000000000000000000081525090506117e4565b600082905060005b600082146117025780806116eb90612a79565b915050600a826116fb9190612af0565b91506116d8565b60008167ffffffffffffffff81111561171e5761171d611c18565b5b6040519080825280601f01601f1916602001820160405280156117505781602001600182028036833780820191505090505b5090505b600085146117dd576001826117699190612612565b9150600a856117789190612b21565b60306117849190612646565b60f81b81838151811061179a57611799612b52565b5b60200101907effffffffffffffffffffffffffffffffffffffffffffffffffffffffffffff1916908160001a905350600a856117d69190612af0565b9450611754565b8093505050505b919050565b6000808273ffffffffffffffffffffffffffffffffffffffff163b119050919050565b82805461181890611f9e565b90600052602060002090601f01602090048101928261183a5760008555611881565b82601f1061185357805160ff1916838001178555611881565b82800160010185558215611881579182015b82811115611880578251825591602001919060010190611865565b5b50905061188e9190611892565b5090565b5b808211156118ab576000816000905550600101611893565b5090565b6000604051905090565b600080fd5b600080fd5b60007fffffffff0000000000000000000000000000000000000000000000000000000082169050919050565b6118f8816118c3565b811461190357600080fd5b50565b600081359050611915816118ef565b92915050565b600060208284031215611931576119306118b9565b5b600061193f84828501611906565b91505092915050565b60008115159050919050565b61195d81611948565b82525050565b60006020820190506119786000830184611954565b92915050565b600081519050919050565b600082825260208201905092915050565b60005b838110156119b857808201518184015260208101905061199d565b838111156119c7576000848401525b50505050565b6000601f19601f8301169050919050565b60006119e98261197e565b6119f38185611989565b9350611a0381856020860161199a565b611a0c816119cd565b840191505092915050565b60006020820190508181036000830152611a3181846119de565b905092915050565b6000819050919050565b611a4c81611a39565b8114611a5757600080fd5b50565b600081359050611a6981611a43565b92915050565b600060208284031215611a8557611a846118b9565b5b6000611a9384828501611a5a565b91505092915050565b600073ffffffffffffffffffffffffffffffffffffffff82169050919050565b6000611ac782611a9c565b9050919050565b611ad781611abc565b82525050565b6000602082019050611af26000830184611ace565b92915050565b611b0181611abc565b8114611b0c57600080fd5b50565b600081359050611b1e81611af8565b92915050565b60008060408385031215611b3b57611b3a6118b9565b5b6000611b4985828601611b0f565b9250506020611b5a85828601611a5a565b9150509250929050565b600080600060608486031215611b7d57611b7c6118b9565b5b6000611b8b86828701611b0f565b9350506020611b9c86828701611b0f565b9250506040611bad86828701611a5a565b9150509250925092565b600060208284031215611bcd57611bcc6118b9565b5b6000611bdb84828501611b0f565b91505092915050565b611bed81611a39565b82525050565b6000602082019050611c086000830184611be4565b92915050565b600080fd5b600080fd5b7f4e487b7100000000000000000000000000000000000000000000000000000000600052604160045260246000fd5b611c50826119cd565b810181811067ffffffffffffffff82111715611c6f57611c6e611c18565b5b80604052505050565b6000611c826118af565b9050611c8e8282611c47565b919050565b600067ffffffffffffffff821115611cae57611cad611c18565b5b611cb7826119cd565b9050602081019050919050565b82818337600083830152505050565b6000611ce6611ce184611c93565b611c78565b905082815260208101848484011115611d0257611d01611c13565b5b611d0d848285611cc4565b509392505050565b600082601f830112611d2a57611d29611c0e565b5b8135611d3a848260208601611cd3565b91505092915050565b60008060408385031215611d5a57611d596118b9565b5b6000611d6885828601611b0f565b925050602083013567ffffffffffffffff811115611d8957611d886118be565b5b611d9585828601611d15565b9150509250929050565b611da881611948565b8114611db357600080fd5b50565b600081359050611dc581611d9f565b92915050565b60008060408385031215611de257611de16118b9565b5b6000611df085828601611b0f565b9250506020611e0185828601611db6565b9150509250929050565b600067ffffffffffffffff821115611e2657611e25611c18565b5b611e2f826119cd565b9050602081019050919050565b6000611e4f611e4a84611e0b565b611c78565b905082815260208101848484011115611e6b57611e6a611c13565b5b611e76848285611cc4565b509392505050565b600082601f830112611e9357611e92611c0e565b5b8135611ea3848260208601611e3c565b91505092915050565b60008060008060808587031215611ec657611ec56118b9565b5b6000611ed487828801611b0f565b9450506020611ee587828801611b0f565b9350506040611ef687828801611a5a565b925050606085013567ffffffffffffffff811115611f1757611f166118be565b5b611f2387828801611e7e565b91505092959194509250565b60008060408385031215611f4657611f456118b9565b5b6000611f5485828601611b0f565b9250506020611f6585828601611b0f565b9150509250929050565b7f4e487b7100000000000000000000000000000000000000000000000000000000600052602260045260246000fd5b60006002820490506001821680611fb657607f821691505b602082108103611fc957611fc8611f6f565b5b50919050565b7f4552433732313a20617070726f76656420717565727920666f72206e6f6e657860008201527f697374656e7420746f6b656e0000000000000000000000000000000000000000602082015250565b600061202b602c83611989565b915061203682611fcf565b604082019050919050565b6000602082019050818103600083015261205a8161201e565b9050919050565b7f4552433732313a20617070726f76616c20746f2063757272656e74206f776e6560008201527f7200000000000000000000000000000000000000000000000000000000000000602082015250565b60006120bd602183611989565b91506120c882612061565b604082019050919050565b600060208201905081810360008301526120ec816120b0565b9050919050565b7f4552433732313a20617070726f76652063616c6c6572206973206e6f74206f7760008201527f6e6572206e6f7220617070726f76656420666f7220616c6c0000000000000000602082015250565b600061214f603883611989565b915061215a826120f3565b604082019050919050565b6000602082019050818103600083015261217e81612142565b9050919050565b7f4552433732313a207472616e736665722063616c6c6572206973206e6f74206f60008201527f776e6572206e6f7220617070726f766564000000000000000000000000000000602082015250565b60006121e1603183611989565b91506121ec82612185565b604082019050919050565b60006020820190508181036000830152612210816121d4565b9050919050565b7f4552433732313a206f776e657220717565727920666f72206e6f6e657869737460008201527f656e7420746f6b656e0000000000000000000000000000000000000000000000602082015250565b6000612273602983611989565b915061227e82612217565b604082019050919050565b600060208201905081810360008301526122a281612266565b9050919050565b7f4552433732313a2062616c616e636520717565727920666f7220746865207a6560008201527f726f206164647265737300000000000000000000000000000000000000000000602082015250565b6000612305602a83611989565b9150612310826122a9565b604082019050919050565b60006020820190508181036000830152612334816122f8565b9050919050565b7f45524337323155524953746f726167653a2055524920717565727920666f722060008201527f6e6f6e6578697374656e7420746f6b656e000000000000000000000000000000602082015250565b6000612397603183611989565b91506123a28261233b565b604082019050919050565b600060208201905081810360008301526123c68161238a565b9050919050565b600081905092915050565b60006123e38261197e565b6123ed81856123cd565b93506123fd81856020860161199a565b80840191505092915050565b600061241582856123d8565b915061242182846123d8565b91508190509392505050565b7f4552433732313a206f70657261746f7220717565727920666f72206e6f6e657860008201527f697374656e7420746f6b656e0000000000000000000000000000000000000000602082015250565b6000612489602c83611989565b91506124948261242d565b604082019050919050565b600060208201905081810360008301526124b88161247c565b9050919050565b7f4552433732313a207472616e736665722066726f6d20696e636f72726563742060008201527f6f776e6572000000000000000000000000000000000000000000000000000000602082015250565b600061251b602583611989565b9150612526826124bf565b604082019050919050565b6000602082019050818103600083015261254a8161250e565b9050919050565b7f4552433732313a207472616e7366657220746f20746865207a65726f2061646460008201527f7265737300000000000000000000000000000000000000000000000000000000602082015250565b60006125ad602483611989565b91506125b882612551565b604082019050919050565b600060208201905081810360008301526125dc816125a0565b9050919050565b7f4e487b7100000000000000000000000000000000000000000000000000000000600052601160045260246000fd5b600061261d82611a39565b915061262883611a39565b92508282101561263b5761263a6125e3565b5b828203905092915050565b600061265182611a39565b915061265c83611a39565b9250827fffffffffffffffffffffffffffffffffffffffffffffffffffffffffffffffff03821115612691576126906125e3565b5b828201905092915050565b7f4552433732313a206d696e7420746f20746865207a65726f2061646472657373600082015250565b60006126d2602083611989565b91506126dd8261269c565b602082019050919050565b60006020820190508181036000830152612701816126c5565b9050919050565b7f4552433732313a20746f6b656e20616c7265616479206d696e74656400000000600082015250565b600061273e601c83611989565b915061274982612708565b602082019050919050565b6000602082019050818103600083015261276d81612731565b9050919050565b7f45524337323155524953746f726167653a2055524920736574206f66206e6f6e60008201527f6578697374656e7420746f6b656e000000000000000000000000000000000000602082015250565b60006127d0602e83611989565b91506127db82612774565b604082019050919050565b600060208201905081810360008301526127ff816127c3565b9050919050565b7f4552433732313a20617070726f766520746f2063616c6c657200000000000000600082015250565b600061283c601983611989565b915061284782612806565b602082019050919050565b6000602082019050818103600083015261286b8161282f565b9050919050565b7f4552433732313a207472616e7366657220746f206e6f6e20455243373231526560008201527f63656976657220696d706c656d656e7465720000000000000000000000000000602082015250565b60006128ce603283611989565b91506128d982612872565b604082019050919050565b600060208201905081810360008301526128fd816128c1565b9050919050565b7f4552433732314d657461646174613a2055524920717565727920666f72206e6f60008201527f6e6578697374656e7420746f6b656e0000000000000000000000000000000000602082015250565b6000612960602f83611989565b915061296b82612904565b604082019050919050565b6000602082019050818103600083015261298f81612953565b9050919050565b600081519050919050565b600082825260208201905092915050565b60006129bd82612996565b6129c781856129a1565b93506129d781856020860161199a565b6129e0816119cd565b840191505092915050565b6000608082019050612a006000830187611ace565b612a0d6020830186611ace565b612a1a6040830185611be4565b8181036060830152612a2c81846129b2565b905095945050505050565b600081519050612a46816118ef565b92915050565b600060208284031215612a6257612a616118b9565b5b6000612a7084828501612a37565b91505092915050565b6000612a8482611a39565b91507fffffffffffffffffffffffffffffffffffffffffffffffffffffffffffffffff8203612ab657612ab56125e3565b5b600182019050919050565b7f4e487b7100000000000000000000000000000000000000000000000000000000600052601260045260246000fd5b6000612afb82611a39565b9150612b0683611a39565b925082612b1657612b15612ac1565b5b828204905092915050565b6000612b2c82611a39565b9150612b3783611a39565b925082612b4757612b46612ac1565b5b828206905092915050565b7f4e487b7100000000000000000000000000000000000000000000000000000000600052603260045260246000fdfea2646970667358221220dcb2348a9679ae0249510fe4774461d004d863724ffad05677031915f16dd8ce64736f6c634300080d0033",
  "immutableReferences": {},
  "source": "// SPDX-License-Identifier: MIT\npragma solidity >=0.4.22 <0.9.0;\n\nimport \"../node_modules/@openzeppelin/contracts/token/ERC721/ERC721.sol\";\n//import \"../node_modules/@openzeppelin/contracts/token/ERC721/extensions/ERC721Enumerable.sol\";\nimport \"../node_modules/@openzeppelin/contracts/token/ERC721/extensions/ERC721URIStorage.sol\";\nimport \"../node_modules/@openzeppelin/contracts/utils/Counters.sol\";\n\ncontract Dontbuy is ERC721URIStorage{\n    using Counters for Counters.Counter;\n    Counters.Counter private _tokenIds;\n\n  constructor() ERC721(\"DontBuyThisNFT\", \"DBT\") {\n    MintNFT(address(0x814bB9f41045C7fb273Fef84bDDb3059D9f8bB28), \"./NFT/NFT.json\");\n  }\n\n\n\n  function MintNFT(address owner, string memory tokenURI)\n      public\n      returns (uint256)\n  {\n      _tokenIds.increment();\n\n      uint256 newItemId = _tokenIds.current();\n      _mint(owner, newItemId);\n      _setTokenURI(newItemId, tokenURI);\n\n      return newItemId;\n  }\n\n}\n",
  "sourcePath": "D:\\HSLU\\STUEMTEC\\DoNotBuyThisNFT\\contracts\\Dontbuy.sol",
  "compiler": {
    "name": "solc",
    "version": "0.8.13+commit.abaa5c0e.Emscripten.clang"
  },
  "schemaVersion": "3.4.6",
  "updatedAt": "2022-04-12T13:29:33.050Z",
  "networkType": "ethereum",
  "devdoc": {
    "kind": "dev",
    "methods": {
      "approve(address,uint256)": {
        "details": "See {IERC721-approve}."
      },
      "balanceOf(address)": {
        "details": "See {IERC721-balanceOf}."
      },
      "getApproved(uint256)": {
        "details": "See {IERC721-getApproved}."
      },
      "isApprovedForAll(address,address)": {
        "details": "See {IERC721-isApprovedForAll}."
      },
      "name()": {
        "details": "See {IERC721Metadata-name}."
      },
      "ownerOf(uint256)": {
        "details": "See {IERC721-ownerOf}."
      },
      "safeTransferFrom(address,address,uint256)": {
        "details": "See {IERC721-safeTransferFrom}."
      },
      "safeTransferFrom(address,address,uint256,bytes)": {
        "details": "See {IERC721-safeTransferFrom}."
      },
      "setApprovalForAll(address,bool)": {
        "details": "See {IERC721-setApprovalForAll}."
      },
      "supportsInterface(bytes4)": {
        "details": "See {IERC165-supportsInterface}."
      },
      "symbol()": {
        "details": "See {IERC721Metadata-symbol}."
      },
      "tokenURI(uint256)": {
        "details": "See {IERC721Metadata-tokenURI}."
      },
      "transferFrom(address,address,uint256)": {
        "details": "See {IERC721-transferFrom}."
      }
    },
    "version": 1
  },
  "userdoc": {
    "kind": "user",
    "methods": {},
    "version": 1
  }
}